{
  "contractName": "Exercice5",
  "abi": [
    {
      "inputs": [
        {
          "internalType": "uint256",
          "name": "nombre",
          "type": "uint256"
        }
      ],
      "name": "estPair",
      "outputs": [
        {
          "internalType": "bool",
          "name": "",
          "type": "bool"
        }
      ],
      "stateMutability": "pure",
      "type": "function",
      "constant": true
    }
  ],
  "bytecode": "0x608060405234801561001057600080fd5b506101ac806100206000396000f3fe608060405234801561001057600080fd5b506004361061002b5760003560e01c80631cee907f14610030575b600080fd5b61004a600480360381019061004591906100b3565b610060565b60405161005791906100fb565b60405180910390f35b6000806002836100709190610145565b149050919050565b600080fd5b6000819050919050565b6100908161007d565b811461009b57600080fd5b50565b6000813590506100ad81610087565b92915050565b6000602082840312156100c9576100c8610078565b5b60006100d78482850161009e565b91505092915050565b60008115159050919050565b6100f5816100e0565b82525050565b600060208201905061011060008301846100ec565b92915050565b7f4e487b7100000000000000000000000000000000000000000000000000000000600052601260045260246000fd5b60006101508261007d565b915061015b8361007d565b92508261016b5761016a610116565b5b82820690509291505056fea26469706673582212208c0bac9da3821340de68c6122ccbdedb391ae0dacf4b4455ae4c20113b9b029964736f6c63430008130033",
  "immutableReferences": {},
  "source": "// SPDX-License-Identifier: MIT\r\npragma solidity ^0.8.0;\r\n\r\ncontract Exercice5 {\r\n    function estPair(uint256 nombre) public pure returns (bool) {\r\n        return nombre % 2 == 0;\r\n    }\r\n}",
  "sourcePath": "C:\\Users\\HajarLabrini\\Desktop\\tp1\\contracts\\Exercice5.sol",
  "compiler": {
    "name": "solc",
    "version": "0.8.19+commit.7dd6d404.Emscripten.clang"
  },
  "schemaVersion": "3.4.16",
  "updatedAt": "2026-06-06T10:13:39.409Z",
  "networkType": "ethereum",
  "devdoc": {
    "kind": "dev",
    "methods": {},
    "version": 1
  },
  "userdoc": {
    "kind": "user",
    "methods": {},
    "version": 1
  }
}