{
  "contractName": "Exercice6",
  "abi": [
    {
      "inputs": [],
      "stateMutability": "nonpayable",
      "type": "constructor"
    },
    {
      "inputs": [
        {
          "internalType": "uint256",
          "name": "",
          "type": "uint256"
        }
      ],
      "name": "nombres",
      "outputs": [
        {
          "internalType": "uint256",
          "name": "",
          "type": "uint256"
        }
      ],
      "stateMutability": "view",
      "type": "function",
      "constant": true
    },
    {
      "inputs": [
        {
          "internalType": "uint256",
          "name": "nombre",
          "type": "uint256"
        }
      ],
      "name": "ajouterNombre",
      "outputs": [],
      "stateMutability": "nonpayable",
      "type": "function"
    },
    {
      "inputs": [
        {
          "internalType": "uint256",
          "name": "index",
          "type": "uint256"
        }
      ],
      "name": "getElement",
      "outputs": [
        {
          "internalType": "uint256",
          "name": "",
          "type": "uint256"
        }
      ],
      "stateMutability": "view",
      "type": "function",
      "constant": true
    },
    {
      "inputs": [],
      "name": "afficheTableau",
      "outputs": [
        {
          "internalType": "uint256[]",
          "name": "",
          "type": "uint256[]"
        }
      ],
      "stateMutability": "view",
      "type": "function",
      "constant": true
    },
    {
      "inputs": [],
      "name": "calculerSomme",
      "outputs": [
        {
          "internalType": "uint256",
          "name": "",
          "type": "uint256"
        }
      ],
      "stateMutability": "view",
      "type": "function",
      "constant": true
    }
  ],
  "bytecode": "0x608060405234801561001057600080fd5b506040518060a00160405280600160ff168152602001600260ff168152602001600360ff168152602001600460ff168152602001600560ff16815250600090600561005c929190610062565b506100d1565b8280548282559060005260206000209081019282156100a3579160200282015b828111156100a2578251829060ff16905591602001919060010190610082565b5b5090506100b091906100b4565b5090565b5b808211156100cd5760008160009055506001016100b5565b5090565b610587806100e06000396000f3fe608060405234801561001057600080fd5b50600436106100575760003560e01c80631f4440b01461005c5780633a7d22bc1461007a5780637692fb5f146100aa578063bd92c667146100da578063e66df334146100f6575b600080fd5b610064610114565b6040516100719190610350565b60405180910390f35b610094600480360381019061008f91906103a3565b61016c565b6040516100a191906103df565b60405180910390f35b6100c460048036038101906100bf91906103a3565b6101da565b6040516100d191906103df565b60405180910390f35b6100f460048036038101906100ef91906103a3565b6101fe565b005b6100fe61022a565b60405161010b91906103df565b60405180910390f35b6060600080548060200260200160405190810160405280929190818152602001828054801561016257602002820191906000526020600020905b81548152602001906001019080831161014e575b5050505050905090565b6000808054905082106101b4576040517f08c379a00000000000000000000000000000000000000000000000000000000081526004016101ab90610457565b60405180910390fd5b600082815481106101c8576101c7610477565b5b90600052602060002001549050919050565b600081815481106101ea57600080fd5b906000526020600020016000915090505481565b600081908060018154018082558091505060019003906000526020600020016000909190919091505550565b6000806000905060005b600080549050811015610280576000818154811061025557610254610477565b5b90600052602060002001548261026b91906104d5565b9150808061027890610509565b915050610234565b508091505090565b600081519050919050565b600082825260208201905092915050565b6000819050602082019050919050565b6000819050919050565b6102c7816102b4565b82525050565b60006102d983836102be565b60208301905092915050565b6000602082019050919050565b60006102fd82610288565b6103078185610293565b9350610312836102a4565b8060005b8381101561034357815161032a88826102cd565b9750610335836102e5565b925050600181019050610316565b5085935050505092915050565b6000602082019050818103600083015261036a81846102f2565b905092915050565b600080fd5b610380816102b4565b811461038b57600080fd5b50565b60008135905061039d81610377565b92915050565b6000602082840312156103b9576103b8610372565b5b60006103c78482850161038e565b91505092915050565b6103d9816102b4565b82525050565b60006020820190506103f460008301846103d0565b92915050565b600082825260208201905092915050565b7f496e646578206e27657869737465207061730000000000000000000000000000600082015250565b60006104416012836103fa565b915061044c8261040b565b602082019050919050565b6000602082019050818103600083015261047081610434565b9050919050565b7f4e487b7100000000000000000000000000000000000000000000000000000000600052603260045260246000fd5b7f4e487b7100000000000000000000000000000000000000000000000000000000600052601160045260246000fd5b60006104e0826102b4565b91506104eb836102b4565b9250828201905080821115610503576105026104a6565b5b92915050565b6000610514826102b4565b91507fffffffffffffffffffffffffffffffffffffffffffffffffffffffffffffffff8203610546576105456104a6565b5b60018201905091905056fea26469706673582212208902dd5303b259e75b0feab080cc28d7c26b9e3b67e2e39a0cd4daae84d4030064736f6c63430008130033",
  "immutableReferences": {},
  "source": "// SPDX-License-Identifier: MIT\r\npragma solidity ^0.8.0;\r\n\r\ncontract Exercice6 {\r\n    uint256[] public nombres;\r\n\r\n    constructor() {\r\n        nombres = [1, 2, 3, 4, 5];\r\n    }\r\n\r\n    function ajouterNombre(uint256 nombre) public {\r\n        nombres.push(nombre);\r\n    }\r\n\r\n    function getElement(uint256 index) public view returns (uint256) {\r\n        require(index < nombres.length, \"Index n'existe pas\");\r\n        return nombres[index];\r\n    }\r\n\r\n    function afficheTableau() public view returns (uint256[] memory) {\r\n        return nombres;\r\n    }\r\n\r\n    function calculerSomme() public view returns (uint256) {\r\n        uint256 somme = 0;\r\n        for (uint256 i = 0; i < nombres.length; i++) {\r\n            somme += nombres[i];\r\n        }\r\n        return somme;\r\n    }\r\n}",
  "sourcePath": "C:\\Users\\HajarLabrini\\Desktop\\tp1\\contracts\\Exercice6.sol",
  "compiler": {
    "name": "solc",
    "version": "0.8.19+commit.7dd6d404.Emscripten.clang"
  },
  "schemaVersion": "3.4.16",
  "updatedAt": "2026-06-06T10:13:39.606Z",
  "networkType": "ethereum",
  "devdoc": {
    "kind": "dev",
    "methods": {},
    "version": 1
  },
  "userdoc": {
    "kind": "user",
    "methods": {},
    "version": 1
  }
}