{
  "contractName": "Payment",
  "abi": [
    {
      "inputs": [
        {
          "internalType": "address",
          "name": "_recipient",
          "type": "address"
        }
      ],
      "stateMutability": "nonpayable",
      "type": "constructor"
    },
    {
      "inputs": [],
      "name": "recipient",
      "outputs": [
        {
          "internalType": "address",
          "name": "",
          "type": "address"
        }
      ],
      "stateMutability": "view",
      "type": "function",
      "constant": true
    },
    {
      "stateMutability": "payable",
      "type": "receive",
      "payable": true
    },
    {
      "inputs": [],
      "name": "receivePayment",
      "outputs": [],
      "stateMutability": "payable",
      "type": "function",
      "payable": true
    },
    {
      "inputs": [],
      "name": "withdraw",
      "outputs": [],
      "stateMutability": "nonpayable",
      "type": "function"
    },
    {
      "inputs": [],
      "name": "getBalance",
      "outputs": [
        {
          "internalType": "uint256",
          "name": "",
          "type": "uint256"
        }
      ],
      "stateMutability": "view",
      "type": "function",
      "constant": true
    }
  ],
  "bytecode": "0x608060405234801561001057600080fd5b50604051610540380380610540833981810160405281019061003291906100db565b806000806101000a81548173ffffffffffffffffffffffffffffffffffffffff021916908373ffffffffffffffffffffffffffffffffffffffff16021790555050610108565b600080fd5b600073ffffffffffffffffffffffffffffffffffffffff82169050919050565b60006100a88261007d565b9050919050565b6100b88161009d565b81146100c357600080fd5b50565b6000815190506100d5816100af565b92915050565b6000602082840312156100f1576100f0610078565b5b60006100ff848285016100c6565b91505092915050565b610429806101176000396000f3fe6080604052600436106100435760003560e01c806312065fe01461004f5780633ccfd60b1461007a57806366d003ac14610091578063835c19f3146100bc5761004a565b3661004a57005b600080fd5b34801561005b57600080fd5b506100646100c6565b6040516100719190610247565b60405180910390f35b34801561008657600080fd5b5061008f6100ce565b005b34801561009d57600080fd5b506100a66101c5565b6040516100b391906102a3565b60405180910390f35b6100c46101e9565b005b600047905090565b60008054906101000a900473ffffffffffffffffffffffffffffffffffffffff1673ffffffffffffffffffffffffffffffffffffffff163373ffffffffffffffffffffffffffffffffffffffff161461015c576040517f08c379a000000000000000000000000000000000000000000000000000000000815260040161015390610341565b60405180910390fd5b60008054906101000a900473ffffffffffffffffffffffffffffffffffffffff1673ffffffffffffffffffffffffffffffffffffffff166108fc479081150290604051600060405180830381858888f193505050501580156101c2573d6000803e3d6000fd5b50565b60008054906101000a900473ffffffffffffffffffffffffffffffffffffffff1681565b6000341161022c576040517f08c379a0000000000000000000000000000000000000000000000000000000008152600401610223906103d3565b60405180910390fd5b565b6000819050919050565b6102418161022e565b82525050565b600060208201905061025c6000830184610238565b92915050565b600073ffffffffffffffffffffffffffffffffffffffff82169050919050565b600061028d82610262565b9050919050565b61029d81610282565b82525050565b60006020820190506102b86000830184610294565b92915050565b600082825260208201905092915050565b7f5365756c206c652064657374696e61746169726520706575742072657469726560008201527f7200000000000000000000000000000000000000000000000000000000000000602082015250565b600061032b6021836102be565b9150610336826102cf565b604082019050919050565b6000602082019050818103600083015261035a8161031e565b9050919050565b7f4c612076616c65757220646f697420657472652073757065726965757265206160008201527f2030000000000000000000000000000000000000000000000000000000000000602082015250565b60006103bd6022836102be565b91506103c882610361565b604082019050919050565b600060208201905081810360008301526103ec816103b0565b905091905056fea26469706673582212203e0e68c61d40e62cb569bab3ff7050056ac0b5a2464d2bcf5f66eff5277ec53364736f6c63430008130033",
  "immutableReferences": {},
  "source": "// SPDX-License-Identifier: MIT\r\npragma solidity ^0.8.0;\r\n\r\ncontract Payment {\r\n    address public recipient;\r\n\r\n    constructor(address _recipient) {\r\n        recipient = _recipient;\r\n    }\r\n\r\n    receive() external payable {}\r\n\r\n    function receivePayment() public payable {\r\n        require(msg.value > 0, \"La valeur doit etre superieure a 0\");\r\n    }\r\n\r\n    function withdraw() public {\r\n        require(msg.sender == recipient, \"Seul le destinataire peut retirer\");\r\n        payable(recipient).transfer(address(this).balance);\r\n    }\r\n\r\n    function getBalance() public view returns (uint256) {\r\n        return address(this).balance;\r\n    }\r\n}",
  "sourcePath": "C:\\Users\\HajarLabrini\\Desktop\\tp1\\contracts\\Exercice8.sol",
  "compiler": {
    "name": "solc",
    "version": "0.8.19+commit.7dd6d404.Emscripten.clang"
  },
  "schemaVersion": "3.4.16",
  "updatedAt": "2026-06-06T10:13:40.028Z",
  "networkType": "ethereum",
  "devdoc": {
    "kind": "dev",
    "methods": {},
    "version": 1
  },
  "userdoc": {
    "kind": "user",
    "methods": {},
    "version": 1
  }
}